S01400006770696F5F6C6962726172792E737265630D
S11300000C9434000C943E000C943E000C943E007E
S11300100C943E000C943E000C943E000C943E0064
S11300200C943E000C943E000C943E000C943E0054
S11300300C943E000C943E000C943E000C943E0044
S11300400C943E000C943E000C943E000C943E0034
S11300500C943E000C943E000C943E000C943E0024
S11300600C943E000C943E0011241FBECFEFD8E048
S1130070DEBFCDBF0E9489000C94BF000C94000029
S1130080FC01408121E030E001C0220F6A95EAF7CB
S1130090242B20830895FC01808121E030E001C0FD
S11300A0220F6A95EAF7922F9095892380838081A5
S11300B08181282B21830895FC01908121E030E087
S11300C001C0220F6A95EAF7209529232083089519
S11300D0FC01408121E030E001C0220F6A95EAF77B
S11300E0242B20830895FC01408121E030E001C0ED
S11300F0220F6A95EAF724272083089589B1282FCF
S1130100217030E070E081E02617370709F080E0C5
S1130110089565E084E290E00E94400065E085E295
S113012090E00E945C0060E087E290E00E94400062
S113013060E088E290E00E94680060E08AE290E07B
S11301400E944B008FE39CE90197F1F700C0000087
S113015060E08BE290E00E947E0060E08BE290E041
S11301600E947E008111EECF65E085E290E00E945E
S1130170730060E088E290E00E947300E3CFF8949B
S1050180FFCFAB
S9030000FC
