S01A00004D6F7273654C6564426C696E6B28444532292E73726563F3
S11300000C945A000C9464000C9464000C946400E6
S11300100C9464000C9464000C9464000C946400CC
S11300200C9464000C9464000C9464000C946400BC
S11300300C9464000C9464000C9464000C946400AC
S11300400C9464000C9464000C9464000C9464009C
S11300500C9464000C9464000C9464000C9464008C
S11300600C9464000C9464000C9464000C9464007C
S11300700C9464000C9464000C9464000C9464006C
S11300800C9464000C9464000C9464000C9464005C
S11300900C9464000C9464000C9464000C9464004C
S11300A00C9464000C9464000C9464000C9464003C
S11300B00C94640011241FBECFEFD8E0DEBFCDBF87
S11300C00E9489000C94F1000C9400002D9A2FEFEB
S11300D087E893E1215080409040E1F700C00000A0
S11300E02D9808952D9A2FEF87E99AE321508040A7
S11300F09040E1F700C000002D9808952D982FEF4F
S113010089E896E6215080409040E1F700C0000065
S11301100895259A2D980E9472002FEF87E893E1A5
S1130120215080409040E1F700C000000E9466002A
S11301302FEF87E893E1215080409040E1F700C021
S113014000000E9466002FEF87E99AE32150804067
S11301509040E1F700C000000E9466002FEF87E99D
S11301609AE3215080409040E1F700C000000E94D3
S113017066002FEF87E893E1215080409040E1F73B
S113018000C000000E9466002FEF87E893E1215031
S113019080409040E1F700C000000E9472002FEF01
S11301A087E893E1215080409040E1F700C00000CF
S11301B00E9472002FEF87E893E121508040904025
S11301C0E1F700C000000E9472002FEF87E99AE374
S11301D0215080409040E1F700C000000E947E0062
S10901E09ACFF894FFCF52
S9030000FC
