S00C0000756172742E737265635C
S11300000C9434000C9451000C9451000C94510045
S11300100C9451000C9451000C9451000C94510018
S11300200C9451000C9451000C9451000C94510008
S11300300C9451000C945E010C9451000C945100EA
S11300400C9451000C9451000C946C020C949A0280
S11300500C9451000C9473010C9451000C945100B5
S11300600C9451000C94510011241FBECFEFD8E022
S1130070DEBFCDBF11E0A0E0B1E0ECEAF6E002C0E3
S113008005900D92A438B107D9F722E0A4E8B1E0B5
S113009001C01D92AA30B207E1F70E941D010C9421
S11300A054030C940000299A85E08A95F1F7000026
S11300B029980895CF93C82F662311F0289A01C078
S11300C02898549A559A569A579A5F985E985D98CC
S11300D05C98CC230CF45F9AC6FD5E9AC5FD5D9ACC
S11300E0C4FD5C9A0E9453005F985E985D985C988A
S11300F0C3FD5F9AC2FD5E9AC1FD5D9AC0FD5C9A24
S11301000E9453005C9A5D9A5E9A5F9A87EB9BE02B
S11301100197F1F700C00000CF91089560E00E94BC
S11301205A000895611104C080580E948E000895F9
S113013080540E948E00089581E00E948E000895EC
S113014061E00E945A000895CF93DF93EC01219659
S1130150FC018081882329F00E94A00089918111EB
S1130160FBCFDF91CF910895CF93C82F209A559A52
S1130170219A549A559A569A579A8FEF99EF019764
S1130180F1F700C000005D9A5C9A0E9453008FE171
S11301909EE40197F1F700C000000E9453008FEF26
S11301A090E00197F1F700C000000E9453008FEF28
S11301B090E00197F1F700C000005C980E945300A2
S11301C08FEF90E00197F1F700C0000088E20E94F1
S11301D08E0088E00E948E000E949C0086E00E94AF
S11301E08E008C2F0E948E00CF910895BC01E0E018
S11301F0F1E040E251E090E0219131912623372350
S1130200232B09F09F5FE417F507B1F7911103C0A1
S11302101092840108C090FD04C081E080938401A1
S113022002C01092840161E08FE00E9492008091EC
S11302308401805D0E94A00008958CE00E94B400B7
S113024060E081E00E94920080E291E00E94A400BC
S113025061E083E00E94920087E291E00E94A400A2
S113026061E088E00E9492008CE291E00E94A40088
S1130270ECE7F0E08081806480838081807F8083EC
S1130280EAE7F0E0808180688083808180688083F1
S113029080818F608083E1E8F0E080818B7F8083C0
S11302A0808183608083EFE6F0E0808181608083D9
S11302B087E690E00E94C4027894FFCF1F920F92C9
S11302C00FB60F9211248F93EF93FF93EAE7F0E0B8
S11302D0808180648083FF91EF918F910F900FBE96
S11302E00F901F9018951F920F920FB60F92112422
S11302F00F931F932F933F934F935F936F937F932A
S11303008F939F93AF93BF93EF93FF93CF93DF9319
S113031000D000D0CDB7DEB780E390E39A83898321
S11303209C838B8380E090E00E94F6000E94DD02B3
S1130330813311F40E94FB0200917800109179003E
S11303404AE0BE016F5F7F4FC8010E941F0360E057
S113035088E00E9492008BE491E00E94A40060E097
S113036088E00E949200CE0101960E94A4000C3BFA
S113037082E0180760F481E391E00E941003CE014B
S113038001960E94100386E491E00E94100340E16C
S1130390BE016F5F7F4FC8010E941F0360E08DE0C4
S11303A00E9492008BE491E00E94A40060E08DE042
S11303B00E949200CE0101960E94A40061E088E0B0
S11303C00E9492000115110581F489E491E00E94D4
S11303D0A40061E088E00E94920080E591E00E9420
S11303E0A400C8010E94F60026C00536110581F458
S11303F089E491E00E94A40061E088E00E949200F8
S113040086E591E00E94A400C8010E94F60027C07E
S1130410053F110581F489E491E00E94A40061E0A4
S113042088E00E94920089E591E00E94A400C8013E
S11304300E94F60028C0023981E0180781F489E49B
S113044091E00E94A40061E088E00E9492008EE5A1
S113045091E00E94A400C8010E94F60017C00A3867
S113046082E0180781F489E491E00E94A40061E02D
S113047088E00E94920083E691E00E94A400C801F3
S11304800E94F60003C00C3B124068F48AE691E037
S11304900E94100380918401805D0E94FB0286E427
S11304A091E00E9410030F900F900F900F90DF9136
S11304B0CF91FF91EF91BF91AF919F918F917F91D8
S11304C06F915F914F913F912F911F910F910F90D9
S11304D00FBE0F901F9018951F920F920FB60F9298
S11304E011242F938F939F93EF93FF938091C000D8
S11304F02091C6008C71E0918701EF5FEF739091BA
S11305008601E91739F0E0938701F0E0E657FE4FE2
S1130510208301C082E090918501892B809385011D
S1130520FF91EF919F918F912F910F900FBE0F909C
S11305301F9018951F920F920FB60F9211248F934C
S11305409F93EF93FF93909189018091880198176D
S113055069F0E0918801EF5FEF73E0938801F0E0C8
S1130560E653FE4F80818093C60005C0E1ECF0E0C5
S113057080818F7D8083FF91EF919F918F910F9068
S11305800FBE0F901F901895109289011092880148
S1130590109287011092860199231CF422E0209383
S11305A0C00090789093C5008093C40088E980933C
S11305B0C10086E08093C2000895909187018091E4
S11305C086019817A9F0909186019F5F9F73E92F88
S11305D0F0E0E657FE4F20818091850190938601DB
S11305E01092850190E0982F8827820F911D08951D
S11305F080E091E00895209189012F5F2F739091FD
S113060088012917E1F3E22FF0E0E653FE4F8083DF
S113061020938901E1ECF0E0808180628083089579
S1130620CF93DF93EC018881882331F021960E94D7
S1130630FB0289918111FBCFDF91CF910895BB27F4
S11306404A3031F4992322F4BDE2909581959F4F6D
S11306500C942B03BB27FB015527AA27880F991F4E
S1130660AA1FA41710F0A41B83955051B9F7A05DDD
S1130670AA3308F0A95DA193009779F7B111B1935A
S11306801192CB010C944403DC01FC01672F71919E
S11306907723E1F7329704C07C916D937083629164
S10F06A0AE17BF07C8F30895F894FFCF0D
S11306AC010002000400080010002000400080003B
S11306BC000100020004000800100020004000802B
S11306CC76616C75653A006B65793A006E6F6E6590
S11306DC00427574746F6E20776173207072657349
S11306EC7365643A20000D0A00202020202020008D
S11306FC526967687400557000446F776E004C65DE
S113070C66740053656C6563740050617269747926
S113071C20626974206F662076616C75652069733C
S107072C3A2000006B
S9030000FC
