S0120000496E74657272757074732E73726563D2
S113000033C000004CC000004AC0000048C00000DB
S113001046C0000044C0000042C0000040C00000D0
S11300203EC000003CC000003AC0000038C00000E0
S113003036C00000A5C0000032C0000030C000007F
S11300402EC000002CC000002AC0000028C0000000
S113005026C0000024C0000022C0000020C0000010
S11300601EC000001CC0000011241FBECFEFD8E04A
S1130070DEBFCDBF11E0A0E0B1E0E2E6F2E002C0F5
S113008005900D92A630B107D9F721E0A6E0B1E0C2
S113009001C01D92A830B207E1F73FD0E0C0B0CF55
S11300A0FC01408121E030E002C0220F331F6A9539
S11300B0E2F7242B20830895FC01808121E030E0C5
S11300C002C0220F331F6A95E2F7922F909589237D
S11300D0808380818181282B21830895FC01908174
S11300E021E030E002C0220F331F6A95E2F7209529
S11300F0292320830895FC01408121E030E002C0DF
S1130100220F331F6A95E2F7242720830895FC0108
S1130110908181E0961380E0089564E084E290E0A9
S1130120BFDF64E085E290E0D9DF65E084E290E03F
S1130130B7DF65E085E290E0D1DF63E084E290E040
S1130140AFDF63E085E290E0C9DF62E084E290E043
S1130150A7DF62E085E290E0C1DF60E08AE290E040
S1130160ABDFE1E8F0E080818C7F80838081846074
S11301708083EFE6F0E08081816080837894FFCF14
S11301801F920F920FB60F9211242F933F934F9308
S11301905F936F937F938F939F93AF93BF93EF93EB
S11301A0FF9360E089E290E0B2DF813049F4E1E856
S11301B0F0E080818B7F80838081836080830EC0A8
S11301C060E089E290E0A3DF811108C0E1E8F0E09B
S11301D080818C7F8083808184608083E0910001B2
S11301E0F0E0EF5FFE4F608185E290E084DFE09114
S11301F00701F0E0EF5FFE4F608185E290E07BDF76
S113020080910701833021F491E09093060111C09D
S1130210811103C01092060104C09091060191114E
S113022006C0809300018F5F8093070107C091305F
S113023029F480930001815080930701FF91EF918D
S1130240BF91AF919F918F917F916F915F914F91EA
S11302503F912F910F900FBE0F901F901895F89417
S1050260FFCFCA
S1090262FF050403020085
S9030000FC
