S01000006C6162365F6C63642E737265631D
S11300000C9434000C9451000C9451000C94510045
S11300100C9451000C9451000C9451000C94510018
S11300200C9451000C9456010C9451000C94510002
S11300300C9451000C9451000C9451000C945100F8
S11300400C94D0020C9451000C9451000C94510067
S11300500C9451000C9451000C9451000C945100D8
S11300600C9451000C94510011241FBECFEFD8E022
S1130070DEBFCDBF11E0A0E0B1E0EEEEF6E002C0DD
S113008005900D92A435B107D9F721E0A4E5B1E0BC
S113009001C01D92AA35B207E1F70E94FA000C9440
S11300A075030C940000299A85E08A95F1F7000005
S11300B029980895CF93C82F662311F0289A01C078
S11300C02898549A559A569A579A5F985E985D98CC
S11300D05C98CC230CF45F9AC6FD5E9AC5FD5D9ACC
S11300E0C4FD5C9A0E9453005F985E985D985C988A
S11300F0C3FD5F9AC2FD5E9AC1FD5D9AC0FD5C9A24
S11301000E9453005C9A5D9A5E9A5F9A87EB9BE02B
S11301100197F1F700C00000CF91089560E00E94BC
S11301205A00089561E00E945A000895611104C0C4
S113013080580E948E00089580540E948E00089575
S113014081E00E948E00089561E00E945A000895A3
S1130150CF93DF93EC012196FC018081882329F061
S11301600E94A40089918111FBCFDF91CF91089562
S1130170CF93C82F209A559A219A549A559A569AF1
S1130180579A8FEF99EF0197F1F700C000005D9A3D
S11301905C9A0E9453008FE19EE40197F1F700C03E
S11301A000000E9453008FEF90E00197F1F700C028
S11301B000000E9453008FEF90E00197F1F700C018
S11301C000005C980E9453008FEF90E00197F1F7D4
S11301D000C0000088E20E948E0088E00E948E0029
S11301E00E94A00086E00E948E008C2F0E948E0048
S11301F0CF9108958EE00E94B80060E081E00E94F3
S1130200960080E491E00E94A80060E08BE00E94E8
S1130210960080E30E94A40061E081E00E949600C1
S113022082E60E94A40061E08BE00E94960083E6CF
S11302300E94A40080E40E948E00C0E0D1E000E4AB
S113024011E089910E949200C017D107D1F780E490
S11302500E948E0061E081E00E94960080E00E948E
S1130260A40060E080E00E94960086E00E94A40062
S113027060E088E00E94960087E00E94A40085B5B3
S11302808D7F85BD85B5856085BDEEE6F0E0808116
S113029081608083E1EBF0E0808187608083E0E728
S11302A0F0E08081816080837894FFCF1F920F9269
S11302B00FB60F921124EF92FF920F931F932F9377
S11302C03F934F935F936F937F938F939F93AF93DA
S11302D0BF93EF93FF93CF93DF9300D0CDB7DEB7F7
S11302E080E390E39A838983809159018F5F8630FC
S11302F018F4809359013BC110925901809158011F
S11303008F5F8A3018F48093580120C110925801ED
S1130310809157018F5F80935701803208F457C052
S113032060E08BE00E94960080915701889FC00195
S1130330112468EE73E00E94180380E3860F0E9484
S1130340A40060E08CE00E94960080915701889F91
S1130350C00111240F2EF4E6EF2EF12CF02DB7017D
S11303600E941803CB010AE010E0B8010E941803B0
S1130370805D0E94A40060E08DE00E949600809160
S11303805701889FC0011124B8010E941803CB01B2
S1130390B8010E941803B8010E941803805D0E94EE
S11303A0A40060E08EE00E94960080915701889F2F
S11303B0C0011124B7010E941803B8010E94180358
S11303C0B8010E941803805D0E94A4006BC08A30AB
S11303D0C8F160E08BE00E94960080915701889FED
S11303E0C001112464E670E00E94180380E3860FC4
S11303F00E94A40060E08CE00E9496008091570166
S1130400889FC00111240AE010E0B8010E9418037B
S1130410CB01B8010E941803805D0E94A40060E033
S11304208DE00E94960080915701889FC00111249D
S1130430B8010E941803B8010E941803805D0E944D
S1130440A40030C0843010F160E08BE00E9496007C
S113045080915701889FC00111240AE010E0B8017F
S11304600E94180380E3860F0E94A40060E08CE0E1
S11304700E94960080915701889FC0011124B80101
S11304800E941803805D0E94A4000CC060E08BE011
S11304900E94960080915701889F802D1124805DD1
S11304A00E94A400809157018C33C0F1109257012F
S11304B0809156018F5F8C3318F48093560102C0EB
S11304C01092560160E081E00E94960080915601EE
S11304D08A3018F480E30E94A400809156014AE017
S11304E0BE016F5F7F4F90E00E944003CE010196F2
S11304F00E94A80060E08BE00E9496008EE491E0E8
S11305000E94A80060E08BE00E9496008091570151
S1130510889F802D1124805D0E94A40060E084E007
S11305200E949600809157018A3018F480E30E945B
S1130530A400809157014AE0BE016F5F7F4F90E0B5
S11305400E944003CE0101960E94A80060E087E06B
S11305500E949600809158014AE0BE016F5F7F4F70
S113056090E00E944003CE0101960E94A8000F90E3
S11305700F90DF91CF91FF91EF91BF91AF919F9138
S11305808F917F916F915F914F913F912F911F9127
S11305900F91FF90EF900F900FBE0F901F90189542
S11305A01F920F920FB60F9211242F933F934F93E4
S11305B05F936F937F938F939F93AF93BF93EF93C7
S11305C0FF938091550161E08F5F0E9496008091B6
S11305D054010E94A400809154018F5F863018F466
S11305E08093540114C010925401809155018F5F7F
S11305F08A3018F4809355010AC01092550161E0C5
S113060081E00E94960088E491E00E94A800FF9196
S1130610EF91BF91AF919F918F917F916F915F9176
S11306204F913F912F910F900FBE0F901F901895EF
S113063097FB072E16F4009407D077FD09D00E948B
S11306402C0307FC05D03EF4909581959F4F0895A7
S1130650709561957F4F0895AA1BBB1B51E107C09C
S1130660AA1FBB1FA617B70710F0A61BB70B881F3E
S1130670991F5A95A9F780959095BC01CD010895CD
S1130680BB274A3031F4992322F4BDE29095819539
S11306909F4F0C944C03BB27FB015527AA27880FB7
S11306A0991FAA1FA41710F0A41B83955051B9F7E2
S11306B0A05DAA3308F0A95DA193009779F7B11161
S11306C0B1931192CB010C946503DC01FC01672FFB
S11306D071917723E1F7329704C07C916D93708315
S11106E06291AE17BF07C8F30895F894FFCFD8
S11306EE0000000000000000101010101010101078
S11306FE18181818181818181C1C1C1C1C1C1C1C48
S113070E1E1E1E1E1E1E1E1E1F1F1F1F1F1F1F1FEF
S113071E1E181412010000000F030509100000003A
S113072E30303A30302E300020202020202020205F
S107073E2020000073
S9030000FC
