S01800004B6E6967687452696465725374796C652E73726563A0
S11300000C9434000C943E000C943E000C943E007E
S11300100C943E000C943E000C943E000C943E0064
S11300200C943E000C943E000C943E000C943E0054
S11300300C943E000C943E000C943E000C943E0044
S11300400C943E000C943E000C943E000C943E0034
S11300500C943E000C943E000C943E000C943E0024
S11300600C943E000C943E0011241FBECFEFD8E048
S1130070DEBFCDBF0E9440000C9487000C940000AA
S113008087B18F6187B940984198439842984498C2
S11300905098589A10E0F12CE1E0F0E0CE2FBF2FF9
S11300A0A12F3F2D612F7F2D40E050E02DC028B1BE
S11300B0CF01042E02C0880F991F0A94E2F7922FF1
S11300C0982798B90FEF24E3DCE001502040D0409A
S11300D0E1F700C0000098B18095892388B94115E3
S11300E0510531F04430510559F06115710529F479
S11300F04F5F5F4F6A2F732F07C06130710521F482
S1130100415051096C2F7B2F489BD1CFCBCFF89412
S1050110FFCF1B
S9030000FC
