S01000007365676D656E74732E73726563AE
S11300000C9434000C9451000C9451000C94510045
S11300100C942F010C9451000C9451000C94510039
S11300200C9451000C9451000C9451000C94510008
S11300300C9451000C949E000C9451000C945100AB
S11300400C94E1000C9451000C9451000C94510058
S11300500C9451000C9451000C9451000C945100D8
S11300600C9451000C94510011241FBECFEFD8E022
S1130070DEBFCDBF11E0A0E0B1E0EAEDF3E002C0E5
S113008005900D92A831B107D9F721E0A8E1B1E0BC
S113009001C01D92AE31B207E1F70E9478000C94C2
S11300A0EB010C940000FC01408121E030E002C02F
S11300B0220F331F6A95E2F7242B20830895FC0155
S11300C0908121E030E002C0220F331F6A95E2F7ED
S11300D02095292320830895FC01408121E030E00C
S11300E002C0220F331F6A95E2F7242B2083089560
S11300F00E945301E1E8F0E080818C7F808380815D
S113010084608083EFE6F0E080818160808385B540
S11301108C7F85BD85B5846085BDEEE6F0E0808189
S113012081608083ECE6F0E0808182608083E8E691
S1130130F0E08081826080837894FFCF1F920F92D9
S11301400FB60F9211248F9380911C018F5F8A3018
S113015018F480931C0107C010921C0180911B01AC
S11301608F5F80931B0180911B01863048F01092B1
S11301701C0110921B0180911A018F5F80931A0158
S113018080911A018A3058F010921C0110921B01C0
S113019010921A01809119018F5F80931901809147
S11301A01901863040F010921C0110921B0110922C
S11301B01A01109219018F910F900FBE0F901F908A
S11301C018951F920F920FB60F9211242F933F93FD
S11301D04F935F936F937F938F939F93AF93BF934B
S11301E0EF93FF9380911801811109C060E0809121
S11301F01C010E94630181E0809318011FC08130BB
S113020049F461E080911B010E94630182E08093C4
S1130210180114C0823049F462E080911A010E94EE
S1130220630183E08093180109C0833039F463E0EB
S1130230809119010E94630110921801FF91EF91BE
S1130240BF91AF919F918F917F916F915F914F91EA
S11302503F912F910F900FBE0F901F9018951F92F2
S11302600F920FB60F9211242F933F934F935F93E6
S11302706F937F938F939F93AF93BF93EF93FF936A
S11302800E94E701FF91EF91BF91AF919F918F91F0
S11302907F916F915F914F913F912F910F900FBE7E
S11302A00F901F90189564E08AE290E00E9453003A
S11302B067E08AE290E00E94530060E084E290E00C
S11302C00E94530008951F93CF93DF93C82F80910A
S11302D01D0181110EC0623031F4EC2FF0E0EC5FAF
S11302E0FE4FC08109C0EC2FF0E0E25FFE4FC081F9
S11302F003C0813009F4CFEFE62FF0E0E050FF4F68
S1130300108164E08BE290E00E945F0067E08BE282
S113031090E00E945F0060E085E290E00E945F0050
S113032085E08A95F1F70000D8E0C0FD06C060E0E2
S113033085E290E00E945F0005C060E085E290E005
S11303400E946C0085E08A95F1F7000067E08BE27B
S113035090E00E946C0085E08A95F1F7000067E068
S11303608BE290E00E945F00C695D150F1F6C8E0A0
S113037010FD06C060E085E290E00E945F0005C0C9
S113038060E085E290E00E946C0085E08A95F1F7D8
S1130390000067E08BE290E00E946C0085E08A95A3
S11303A0F1F7000067E08BE290E00E945F00169591
S11303B0C150F1F664E08BE290E00E946C0085E0AD
S11303C08A95F1F70000DF91CF911F91089581E0A4
S10D03D080931D010895F894FFCFF7
S11303DA10204080029E240C9848401E0008039F67
S10B03EA250D9949411F010989
S9030000FC
